{
  "contractName": "imageUpload",
  "abi": [
    {
      "constant": true,
      "inputs": [],
      "name": "count",
      "outputs": [
        {
          "name": "",
          "type": "uint256"
        }
      ],
      "payable": false,
      "stateMutability": "view",
      "type": "function",
      "signature": "0x06661abd"
    },
    {
      "constant": true,
      "inputs": [
        {
          "name": "",
          "type": "uint256"
        }
      ],
      "name": "images",
      "outputs": [
        {
          "name": "id",
          "type": "uint256"
        },
        {
          "name": "imageHash",
          "type": "string"
        }
      ],
      "payable": false,
      "stateMutability": "view",
      "type": "function",
      "signature": "0x84856482"
    },
    {
      "anonymous": false,
      "inputs": [
        {
          "indexed": false,
          "name": "imageHash",
          "type": "string"
        }
      ],
      "name": "sendHash",
      "type": "event",
      "signature": "0xdfb29935e21c4fe4442b3275c103ef26f013b91b8483d726360e5dceb7d2fe35"
    },
    {
      "anonymous": false,
      "inputs": [
        {
          "indexed": false,
          "name": "id",
          "type": "uint256"
        }
      ],
      "name": "getHash",
      "type": "event",
      "signature": "0x6b2fafa95b39ab84610ffd4cdc1d13c17e2139e9e6823f3cefb8586d444366dd"
    },
    {
      "constant": false,
      "inputs": [
        {
          "name": "hash",
          "type": "string"
        }
      ],
      "name": "uploadImage",
      "outputs": [],
      "payable": false,
      "stateMutability": "nonpayable",
      "type": "function",
      "signature": "0xe740c8a0"
    },
    {
      "constant": false,
      "inputs": [
        {
          "name": "id",
          "type": "uint256"
        }
      ],
      "name": "retrieveHash",
      "outputs": [],
      "payable": false,
      "stateMutability": "nonpayable",
      "type": "function",
      "signature": "0x210ab8c7"
    }
  ],
  "bytecode": "0x60806040526000805534801561001457600080fd5b5061057e806100246000396000f3fe6080604052600436106100615763ffffffff7c010000000000000000000000000000000000000000000000000000000060003504166306661abd8114610066578063210ab8c71461008d57806384856482146100b9578063e740c8a014610162575b600080fd5b34801561007257600080fd5b5061007b610215565b60408051918252519081900360200190f35b34801561009957600080fd5b506100b7600480360360208110156100b057600080fd5b503561021b565b005b3480156100c557600080fd5b506100e3600480360360208110156100dc57600080fd5b5035610377565b6040518083815260200180602001828103825283818151815260200191508051906020019080838360005b8381101561012657818101518382015260200161010e565b50505050905090810190601f1680156101535780820380516001836020036101000a031916815260200191505b50935050505060405180910390f35b34801561016e57600080fd5b506100b76004803603602081101561018557600080fd5b8101906020810181356401000000008111156101a057600080fd5b8201836020820111156101b257600080fd5b803590602001918460018302840111640100000000831117156101d457600080fd5b91908080601f01602080910402602001604051908101604052809392919081815260200183838082843760009201919091525092955061041d945050505050565b60005481565b61022361049f565b600082815260016020818152604092839020835180850185528154815281840180548651600296821615610100026000190190911695909504601f810185900485028601850190965285855290949193858401939092908301828280156102cb5780601f106102a0576101008083540402835291602001916102cb565b820191906000526020600020905b8154815290600101906020018083116102ae57829003601f168201915b50505050508152505090507fdfb29935e21c4fe4442b3275c103ef26f013b91b8483d726360e5dceb7d2fe3581602001516040518080602001828103825283818151815260200191508051906020019080838360005b83811015610339578181015183820152602001610321565b50505050905090810190601f1680156103665780820380516001836020036101000a031916815260200191505b509250505060405180910390a15050565b600160208181526000928352604092839020805481840180548651600296821615610100026000190190911695909504601f810185900485028601850190965285855290949193929091908301828280156104135780601f106103e857610100808354040283529160200191610413565b820191906000526020600020905b8154815290600101906020018083116103f657829003601f168201915b5050505050905082565b60008054600190810180835560408051808201825282815260208082018781529386528481529190942084518155915180519293610463939085019291909101906104b7565b505060005460408051918252517f6b2fafa95b39ab84610ffd4cdc1d13c17e2139e9e6823f3cefb8586d444366dd92509081900360200190a150565b60408051808201909152600081526060602082015290565b828054600181600116156101000203166002900490600052602060002090601f016020900481019282601f106104f857805160ff1916838001178555610525565b82800160010185558215610525579182015b8281111561052557825182559160200191906001019061050a565b50610531929150610535565b5090565b61054f91905b80821115610531576000815560010161053b565b9056fea165627a7a723058206973770cccc08c3b4705e897c1f8287044503b68e3bfcb5071c83e3f77d5583c0029",
  "source": "pragma solidity >=0.4.22 <0.9.0;\n\ncontract imageUpload {\n\n  uint public count = 0; \n\n  struct image{\n    uint id;\n    string imageHash;\n  }\n\n  \n  mapping(uint => image ) public images;\n\n  event sendHash(\n    string imageHash\n  );\n   \n   event getHash(\n    uint id\n   );\n\n  function uploadImage(string memory hash) public  {\n    count++;\n    images[count] = image(count,hash);\n    emit getHash(count);\n  }\n\n\n  function retrieveHash(uint id) public {\n    image memory v1 = images[id];\n    emit sendHash(v1.imageHash);\n  }\n}",
  "sourcePath": "/home/jyothiswaroopreddy/lodhaproject/blockchain/contracts/ImageUpload.sol",
  "compiler": {
    "name": "solc",
    "version": "0.5.0+commit.1d4f565a.Emscripten.clang"
  },
  "schemaVersion": "3.0.1",
  "updatedAt": "2022-12-08T07:41:26.617Z",
  "devdoc": {
    "methods": {}
  },
  "userdoc": {
    "methods": {}
  }
}