{
  "contractName": "imageUpload",
  "abi": [
    {
      "constant": false,
      "inputs": [
        {
          "name": "id",
          "type": "string"
        },
        {
          "name": "hash",
          "type": "string"
        }
      ],
      "name": "uploadImage",
      "outputs": [
        {
          "name": "",
          "type": "bool"
        }
      ],
      "payable": false,
      "stateMutability": "nonpayable",
      "type": "function",
      "signature": "0xa91b8314"
    },
    {
      "constant": true,
      "inputs": [
        {
          "name": "id",
          "type": "string"
        }
      ],
      "name": "retrieveHash",
      "outputs": [
        {
          "name": "",
          "type": "string"
        }
      ],
      "payable": false,
      "stateMutability": "view",
      "type": "function",
      "signature": "0xef2ea1b0"
    }
  ],
  "bytecode": "0x608060405234801561001057600080fd5b50610600806100206000396000f3fe60806040526004361061004b5763ffffffff7c0100000000000000000000000000000000000000000000000000000000600035041663a91b83148114610050578063ef2ea1b01461019e575b600080fd5b34801561005c57600080fd5b5061018a6004803603604081101561007357600080fd5b81019060208101813564010000000081111561008e57600080fd5b8201836020820111156100a057600080fd5b803590602001918460018302840111640100000000831117156100c257600080fd5b91908080601f016020809104026020016040519081016040528093929190818152602001838380828437600092019190915250929594936020810193503591505064010000000081111561011557600080fd5b82018360208201111561012757600080fd5b8035906020019184600183028401116401000000008311171561014957600080fd5b91908080601f0160208091040260200160405190810160405280939291908181526020018383808284376000920191909152509295506102c6945050505050565b604080519115158252519081900360200190f35b3480156101aa57600080fd5b50610251600480360360208110156101c157600080fd5b8101906020810181356401000000008111156101dc57600080fd5b8201836020820111156101ee57600080fd5b8035906020019184600183028401116401000000008311171561021057600080fd5b91908080601f016020809104026020016040519081016040528093929190818152602001838380828437600092019190915250929550610398945050505050565b6040805160208082528351818301528351919283929083019185019080838360005b8381101561028b578181015183820152602001610273565b50505050905090810190601f1680156102b85780820380516001836020036101000a031916815260200191505b509250505060405180910390f35b6000606060405190810160405280848152602001838152602001600115158152506000846040518082805190602001908083835b602083106103195780518252601f1990920191602091820191016102fa565b51815160209384036101000a600019018019909216911617905292019485525060405193849003810190932084518051919461035a94508593500190610539565b5060208281015180516103739260018501920190610539565b50604091909101516002909101805460ff191691151591909117905550600192915050565b60606000826040518082805190602001908083835b602083106103cc5780518252601f1990920191602091820191016103ad565b51815160209384036101000a600019018019909216911617905292019485525060405193849003019092206002015460ff16151591506104429050575060408051808201909152601c81527f496d61676573204861736820646f6573206e6f742065787369737473000000006020820152610534565b6000826040518082805190602001908083835b602083106104745780518252601f199092019160209182019101610455565b518151600019602094850361010090810a8201928316921993909316919091179092529490920196875260408051978890038201882060019081018054601f6002938216159098029095019094160494850182900482028801820190528387529094509192505083018282801561052c5780601f106105015761010080835404028352916020019161052c565b820191906000526020600020905b81548152906001019060200180831161050f57829003601f168201915b505050505090505b919050565b828054600181600116156101000203166002900490600052602060002090601f016020900481019282601f1061057a57805160ff19168380011785556105a7565b828001600101855582156105a7579182015b828111156105a757825182559160200191906001019061058c565b506105b39291506105b7565b5090565b6105d191905b808211156105b357600081556001016105bd565b9056fea165627a7a7230582015160de759c623b2407dd47a4e601a59201c7906e9bd8a2089a7a869bf8c34ca0029",
  "source": "pragma solidity >=0.4.22 <0.9.0;\n\ncontract imageUpload {\n  struct image{\n    string id;\n    string imageHash;\n    bool isSet;\n  }\n  \n  mapping(string => image ) images;\n\n\n  function uploadImage(string memory id,string memory hash) public returns (bool) {\n    images[id] = image(id,hash,true);\n    return true;\n  }\n\n\n  function retrieveHash(string memory id) public view returns (string memory) {\n    if(images[id].isSet == false) {\n        return (\"Images Hash does not exsists\");\n    }\n    return (images[id].imageHash);\n  }\n}",
  "sourcePath": "/home/jyothiswaroopreddy/lodhaproject/blockchain/contracts/ImageUpload.sol",
  "compiler": {
    "name": "solc",
    "version": "0.5.0+commit.1d4f565a.Emscripten.clang"
  },
  "schemaVersion": "3.0.1",
  "updatedAt": "2022-12-05T09:23:58.455Z",
  "devdoc": {
    "methods": {}
  },
  "userdoc": {
    "methods": {}
  }
}