{
  "contractName": "imageUpload",
  "abi": [
    {
      "constant": false,
      "inputs": [
        {
          "name": "id",
          "type": "string"
        },
        {
          "name": "hash",
          "type": "string"
        }
      ],
      "name": "uploadImage",
      "outputs": [
        {
          "name": "",
          "type": "bool"
        }
      ],
      "payable": false,
      "stateMutability": "nonpayable",
      "type": "function",
      "signature": "0xa91b8314"
    },
    {
      "constant": true,
      "inputs": [
        {
          "name": "id",
          "type": "string"
        }
      ],
      "name": "retrieveHash",
      "outputs": [
        {
          "name": "",
          "type": "string"
        }
      ],
      "payable": false,
      "stateMutability": "view",
      "type": "function",
      "signature": "0xef2ea1b0"
    }
  ],
  "bytecode": "0x608060405234801561001057600080fd5b50610534806100206000396000f3fe60806040526004361061004b5763ffffffff7c0100000000000000000000000000000000000000000000000000000000600035041663a91b83148114610050578063ef2ea1b01461019e575b600080fd5b34801561005c57600080fd5b5061018a6004803603604081101561007357600080fd5b81019060208101813564010000000081111561008e57600080fd5b8201836020820111156100a057600080fd5b803590602001918460018302840111640100000000831117156100c257600080fd5b91908080601f016020809104026020016040519081016040528093929190818152602001838380828437600092019190915250929594936020810193503591505064010000000081111561011557600080fd5b82018360208201111561012757600080fd5b8035906020019184600183028401116401000000008311171561014957600080fd5b91908080601f0160208091040260200160405190810160405280939291908181526020018383808284376000920191909152509295506102c6945050505050565b604080519115158252519081900360200190f35b3480156101aa57600080fd5b50610251600480360360208110156101c157600080fd5b8101906020810181356401000000008111156101dc57600080fd5b8201836020820111156101ee57600080fd5b8035906020019184600183028401116401000000008311171561021057600080fd5b91908080601f016020809104026020016040519081016040528093929190818152602001838380828437600092019190915250929550610375945050505050565b6040805160208082528351818301528351919283929083019185019080838360005b8381101561028b578181015183820152602001610273565b50505050905090810190601f1680156102b85780820380516001836020036101000a031916815260200191505b509250505060405180910390f35b60006040805190810160405280848152602001838152506000846040518082805190602001908083835b6020831061030f5780518252601f1990920191602091820191016102f0565b51815160209384036101000a60001901801990921691161790529201948552506040519384900381019093208451805191946103509450859350019061046d565b506020828101518051610369926001850192019061046d565b50600195945050505050565b60606000826040518082805190602001908083835b602083106103a95780518252601f19909201916020918201910161038a565b518151600019602094850361010090810a8201928316921993909316919091179092529490920196875260408051978890038201882060019081018054601f600293821615909802909501909416049485018290048202880182019052838752909450919250508301828280156104615780601f1061043657610100808354040283529160200191610461565b820191906000526020600020905b81548152906001019060200180831161044457829003601f168201915b50505050509050919050565b828054600181600116156101000203166002900490600052602060002090601f016020900481019282601f106104ae57805160ff19168380011785556104db565b828001600101855582156104db579182015b828111156104db5782518255916020019190600101906104c0565b506104e79291506104eb565b5090565b61050591905b808211156104e757600081556001016104f1565b9056fea165627a7a723058200a755e0e156219d8f4472e263217141e59518ee03b724e7d73354cdd221ba6400029",
  "source": "pragma solidity >=0.4.22 <0.9.0;\n\ncontract imageUpload {\n  struct image{\n    string id;\n    string imageHash;\n  }\n  \n  mapping(string => image ) images;\n\n\n  function uploadImage(string memory id,string memory hash) public returns (bool) {\n    images[id] = image(id,hash);\n    return true;\n  }\n\n\n  function retrieveHash(string memory id) public view returns (string memory) {\n    return (images[id].imageHash);\n  }\n}",
  "sourcePath": "/home/jyothiswaroopreddy/lodhaproject/blockchain/contracts/ImageUpload.sol",
  "compiler": {
    "name": "solc",
    "version": "0.5.0+commit.1d4f565a.Emscripten.clang"
  },
  "schemaVersion": "3.0.1",
  "updatedAt": "2022-12-06T11:15:48.228Z",
  "devdoc": {
    "methods": {}
  },
  "userdoc": {
    "methods": {}
  }
}